{
  "contractName": "FlightCompensation",
  "abi": [
    {
      "inputs": [],
      "payable": false,
      "stateMutability": "nonpayable",
      "type": "constructor"
    },
    {
      "anonymous": false,
      "inputs": [
        {
          "indexed": false,
          "internalType": "uint256",
          "name": "ID",
          "type": "uint256"
        },
        {
          "indexed": false,
          "internalType": "uint8",
          "name": "airlineType",
          "type": "uint8"
        },
        {
          "indexed": false,
          "internalType": "bytes32",
          "name": "flightID",
          "type": "bytes32"
        }
      ],
      "name": "ClaimCreation",
      "type": "event"
    },
    {
      "anonymous": false,
      "inputs": [
        {
          "indexed": false,
          "internalType": "uint256",
          "name": "ID",
          "type": "uint256"
        },
        {
          "indexed": false,
          "internalType": "bytes32",
          "name": "flightID",
          "type": "bytes32"
        },
        {
          "indexed": false,
          "internalType": "uint8",
          "name": "status",
          "type": "uint8"
        },
        {
          "indexed": false,
          "internalType": "uint16",
          "name": "compensation",
          "type": "uint16"
        }
      ],
      "name": "ClaimResolve",
      "type": "event"
    },
    {
      "constant": false,
      "inputs": [
        {
          "internalType": "uint256",
          "name": "ID",
          "type": "uint256"
        },
        {
          "internalType": "bytes32",
          "name": "flightID",
          "type": "bytes32"
        },
        {
          "internalType": "uint8",
          "name": "airlineType",
          "type": "uint8"
        },
        {
          "internalType": "uint256",
          "name": "maxArrivalTime0",
          "type": "uint256"
        },
        {
          "internalType": "uint256",
          "name": "maxArrivalTime1",
          "type": "uint256"
        },
        {
          "internalType": "uint256",
          "name": "maxArrivalTime2",
          "type": "uint256"
        },
        {
          "internalType": "address payable",
          "name": "compensationAddress",
          "type": "address"
        }
      ],
      "name": "addNewClaim",
      "outputs": [],
      "payable": false,
      "stateMutability": "nonpayable",
      "type": "function"
    }
  ],
  "bytecode": "0x608060405234801561001057600080fd5b50336000806101000a81548173ffffffffffffffffffffffffffffffffffffffff021916908373ffffffffffffffffffffffffffffffffffffffff1602179055506103b2806100606000396000f3fe608060405234801561001057600080fd5b506004361061002b5760003560e01c80630d38a24914610030575b600080fd5b6100b1600480360360e081101561004657600080fd5b810190808035906020019092919080359060200190929190803560ff169060200190929190803590602001909291908035906020019092919080359060200190929190803573ffffffffffffffffffffffffffffffffffffffff1690602001909291905050506100b3565b005b6000809054906101000a900473ffffffffffffffffffffffffffffffffffffffff1673ffffffffffffffffffffffffffffffffffffffff163373ffffffffffffffffffffffffffffffffffffffff16141561030f57610110610318565b8781600001818152505085816020019060ff16908160ff1681525050848160400181815250508381606001818152505082816080018181525050818160e0019073ffffffffffffffffffffffffffffffffffffffff16908173ffffffffffffffffffffffffffffffffffffffff168152505060008160a0019060ff16908160ff168152505060008160c0019061ffff16908161ffff16815250506001600088815260200190815260200160002081908060018154018082558091505090600182039060005260206000209060060201600090919290919091506000820151816000015560208201518160010160006101000a81548160ff021916908360ff16021790555060408201518160020155606082015181600301556080820151816004015560a08201518160050160006101000a81548160ff021916908360ff16021790555060c08201518160050160016101000a81548161ffff021916908361ffff16021790555060e08201518160050160036101000a81548173ffffffffffffffffffffffffffffffffffffffff021916908373ffffffffffffffffffffffffffffffffffffffff1602179055505050507f6c8ed60f9fe45e31804ed5a0680945c6d61095c3ba5ebce06b372738ae7f83c8888789604051808481526020018360ff1660ff168152602001828152602001935050505060405180910390a1505b50505050505050565b60405180610100016040528060008152602001600060ff168152602001600081526020016000815260200160008152602001600060ff168152602001600061ffff168152602001600073ffffffffffffffffffffffffffffffffffffffff168152509056fea265627a7a72315820fc304ae03fe1db42323473be11c23101aa24f1930bcf4fe95ab9ae6b03fc318b64736f6c63430005100032",
  "source": "pragma solidity ^0.5.16;\n\ncontract FlightCompensation{\n    /*\n    * Posible statuses for the claim:\n    * 0: ongoing\n    * 1: flight landed before maxArrivalTime0\n    * 2: flight landed after maxArrivalTime0 but before maxArrivalTime1\n    * 3: flight landed after maxArrivalTime1 but before maxArrivalTime2\n    * 4: flight landed after maxArrivalTime2\n    * 5: flight cancelled by the passenger\n    * 6: flight cancelled by the airline\n    */\n    struct Claim{               //all information related to a passenger claim\n        uint256 ID;             //ID identifying the claim/passenger\n        uint8 airlineType;      //Possible airline types: 0: small airline, 1: large airline\n        uint256 maxArrivalTime0;    //Original Arrival time + 3 hours\n        uint256 maxArrivalTime1;   //Original Arrival time + 6 hours\n        uint256 maxArrivalTime2;   //Original Arrival time + 9 hours\n        uint8 status;           //status of the flight\n        uint16 compensation;    //amount owed to the passenger: $0-$1000\n        address payable compensationAddress;    //address to which we will send the compensation\n    }\n\n    event ClaimCreation(    //event sent when a new claim is added to the smart contract\n        uint256 ID,        //ID identifying the claim/passenger\n        uint8 airlineType, //Possible airline types: 0: small airline, 1: large airline\n        bytes32 flightID  // <carrier_code><flight_number>.<timestamp_in_sec_of_departure_date>\n    );\n\n    event ClaimResolve(     //event sent when the claim is resolved\n        uint256 ID,        //ID identifying the claim/passenger\n        bytes32 flightID,   // <carrier_code><flight_number>.<timestamp_in_sec_of_departure_date>\n        uint8 status,           //status of the flight\n        uint16 compensation    //amount owed to the passenger: $0-$1000\n    );\n\n    address creator;        // address of the creator of the contract\n\n    // All the insurances handled by this smart contract are contained in this mapping\n    // key: a string containing the flight number and the timestamp separated by a dot\n    // value: an array of insurance contracts for this flight\n    mapping (bytes32 => Claim[]) claimList;\n\n    /**\n    * @dev This modifier checks that only the creator of the contract can call this smart contract\n    */\n    modifier onlyIfCreator {\n        if (msg.sender == creator) _;\n    }\n\n    /**\n    * @dev Constructor\n    */\n    constructor () public {\n        creator = msg.sender;\n    }\n\n    function addNewClaim (\n        uint256 ID,\n        bytes32 flightID,\n        uint8 airlineType,\n        uint256 maxArrivalTime0,\n        uint256 maxArrivalTime1,\n        uint256 maxArrivalTime2,\n        address payable compensationAddress\n    )\n    external onlyIfCreator {\n        \n    Claim memory claimToAdd;\n    claimToAdd.ID = ID;\n    claimToAdd.airlineType = airlineType;\n    claimToAdd.maxArrivalTime0 = maxArrivalTime0;\n    claimToAdd.maxArrivalTime1 = maxArrivalTime1;\n    claimToAdd.maxArrivalTime2 = maxArrivalTime2;\n    claimToAdd.compensationAddress = compensationAddress;\n    claimToAdd.status = 0; //when we create a claim, it is ongoing -> code:0\n    claimToAdd.compensation = 0; //when we create a claim, initial compensation is 0\n\n    claimList[flightID].push(claimToAdd);\n\n    emit ClaimCreation(ID, airlineType, flightID);\n  }\n\n}",
  "sourcePath": "/Users/afuadhossain/Documents/GitHub/IFT6056-Project/contracts/FlightCompensation.sol",
  "compiler": {
    "name": "solc",
    "version": "0.5.16+commit.9c3226ce.Emscripten.clang"
  },
  "schemaVersion": "3.0.23",
  "updatedAt": "2020-03-20T18:48:26.715Z",
  "devdoc": {
    "methods": {
      "constructor": {
        "details": "Constructor"
      }
    }
  },
  "userdoc": {
    "methods": {}
  }
}