{
  "contractName": "FlightCompensation",
  "abi": [
    {
      "inputs": [],
      "payable": false,
      "stateMutability": "nonpayable",
      "type": "constructor"
    },
    {
      "anonymous": false,
      "inputs": [
        {
          "indexed": false,
          "internalType": "uint256",
          "name": "ID",
          "type": "uint256"
        },
        {
          "indexed": false,
          "internalType": "uint8",
          "name": "airlineType",
          "type": "uint8"
        },
        {
          "indexed": false,
          "internalType": "bytes32",
          "name": "flightID",
          "type": "bytes32"
        }
      ],
      "name": "ClaimCreation",
      "type": "event"
    },
    {
      "anonymous": false,
      "inputs": [
        {
          "indexed": false,
          "internalType": "uint256",
          "name": "ID",
          "type": "uint256"
        },
        {
          "indexed": false,
          "internalType": "bytes32",
          "name": "flightID",
          "type": "bytes32"
        },
        {
          "indexed": false,
          "internalType": "uint8",
          "name": "status",
          "type": "uint8"
        },
        {
          "indexed": false,
          "internalType": "uint16",
          "name": "compensation",
          "type": "uint16"
        }
      ],
      "name": "ClaimResolve",
      "type": "event"
    },
    {
      "anonymous": false,
      "inputs": [
        {
          "indexed": false,
          "internalType": "uint256",
          "name": "ID",
          "type": "uint256"
        },
        {
          "indexed": false,
          "internalType": "uint16",
          "name": "compensation",
          "type": "uint16"
        },
        {
          "indexed": false,
          "internalType": "address",
          "name": "recipient",
          "type": "address"
        },
        {
          "indexed": false,
          "internalType": "bytes32",
          "name": "errorMessage",
          "type": "bytes32"
        }
      ],
      "name": "CompensationError",
      "type": "event"
    },
    {
      "anonymous": false,
      "inputs": [
        {
          "indexed": false,
          "internalType": "uint256",
          "name": "ID",
          "type": "uint256"
        },
        {
          "indexed": false,
          "internalType": "uint16",
          "name": "compensation",
          "type": "uint16"
        },
        {
          "indexed": false,
          "internalType": "address",
          "name": "recipient",
          "type": "address"
        }
      ],
      "name": "CompensationPaid",
      "type": "event"
    },
    {
      "constant": false,
      "inputs": [
        {
          "internalType": "uint256",
          "name": "ID",
          "type": "uint256"
        },
        {
          "internalType": "bytes32",
          "name": "flightID",
          "type": "bytes32"
        },
        {
          "internalType": "uint8",
          "name": "airlineType",
          "type": "uint8"
        },
        {
          "internalType": "uint256",
          "name": "maxArrivalTime0",
          "type": "uint256"
        },
        {
          "internalType": "uint256",
          "name": "maxArrivalTime1",
          "type": "uint256"
        },
        {
          "internalType": "uint256",
          "name": "maxArrivalTime2",
          "type": "uint256"
        },
        {
          "internalType": "address payable",
          "name": "compensationAddress",
          "type": "address"
        }
      ],
      "name": "addNewClaim",
      "outputs": [],
      "payable": false,
      "stateMutability": "nonpayable",
      "type": "function"
    },
    {
      "constant": false,
      "inputs": [
        {
          "internalType": "bytes32",
          "name": "flightID",
          "type": "bytes32"
        },
        {
          "internalType": "uint256",
          "name": "actualArrivalTime",
          "type": "uint256"
        }
      ],
      "name": "updateFlightStatus",
      "outputs": [],
      "payable": false,
      "stateMutability": "nonpayable",
      "type": "function"
    },
    {
      "constant": true,
      "inputs": [
        {
          "internalType": "bytes32",
          "name": "flightID",
          "type": "bytes32"
        }
      ],
      "name": "getClaimsCount",
      "outputs": [
        {
          "internalType": "uint256",
          "name": "",
          "type": "uint256"
        }
      ],
      "payable": false,
      "stateMutability": "view",
      "type": "function"
    },
    {
      "constant": true,
      "inputs": [
        {
          "internalType": "bytes32",
          "name": "flightID",
          "type": "bytes32"
        },
        {
          "internalType": "uint256",
          "name": "i",
          "type": "uint256"
        }
      ],
      "name": "getClaim",
      "outputs": [
        {
          "internalType": "uint256",
          "name": "",
          "type": "uint256"
        },
        {
          "internalType": "uint8",
          "name": "",
          "type": "uint8"
        },
        {
          "internalType": "uint256",
          "name": "",
          "type": "uint256"
        },
        {
          "internalType": "uint256",
          "name": "",
          "type": "uint256"
        },
        {
          "internalType": "uint256",
          "name": "",
          "type": "uint256"
        },
        {
          "internalType": "uint8",
          "name": "",
          "type": "uint8"
        },
        {
          "internalType": "uint16",
          "name": "",
          "type": "uint16"
        },
        {
          "internalType": "address payable",
          "name": "",
          "type": "address"
        }
      ],
      "payable": false,
      "stateMutability": "view",
      "type": "function"
    },
    {
      "constant": false,
      "inputs": [],
      "name": "deposit",
      "outputs": [],
      "payable": true,
      "stateMutability": "payable",
      "type": "function"
    },
    {
      "constant": false,
      "inputs": [
        {
          "internalType": "uint16",
          "name": "amount",
          "type": "uint16"
        }
      ],
      "name": "withdraw",
      "outputs": [],
      "payable": false,
      "stateMutability": "nonpayable",
      "type": "function"
    }
  ],
  "bytecode": "0x6080604052607d6000806101000a81548161ffff021916908361ffff16021790555060fa600060026101000a81548161ffff021916908361ffff1602179055506101f4600060046101000a81548161ffff021916908361ffff160217905550610190600060066101000a81548161ffff021916908361ffff1602179055506102bc600060086101000a81548161ffff021916908361ffff1602179055506103e86000600a6101000a81548161ffff021916908361ffff1602179055503480156100c757600080fd5b5033600260006101000a81548173ffffffffffffffffffffffffffffffffffffffff021916908373ffffffffffffffffffffffffffffffffffffffff16021790555061120e806101186000396000f3fe6080604052600436106100555760003560e01c80630d38a2491461005a5780632f452bf4146100ea5780633d972839146101395780637f22c2d914610178578063b54cd45114610242578063d0e30db014610287575b600080fd5b34801561006657600080fd5b506100e8600480360360e081101561007d57600080fd5b810190808035906020019092919080359060200190929190803560ff169060200190929190803590602001909291908035906020019092919080359060200190929190803573ffffffffffffffffffffffffffffffffffffffff169060200190929190505050610291565b005b3480156100f657600080fd5b506101236004803603602081101561010d57600080fd5b81019080803590602001909291905050506104f7565b6040518082815260200191505060405180910390f35b34801561014557600080fd5b506101766004803603602081101561015c57600080fd5b81019080803561ffff16906020019092919050505061056e565b005b34801561018457600080fd5b506101bb6004803603604081101561019b57600080fd5b8101908080359060200190929190803590602001909291905050506106b3565b604051808981526020018860ff1660ff1681526020018781526020018681526020018581526020018460ff1660ff1681526020018361ffff1661ffff1681526020018273ffffffffffffffffffffffffffffffffffffffff1673ffffffffffffffffffffffffffffffffffffffff1681526020019850505050505050505060405180910390f35b34801561024e57600080fd5b506102856004803603604081101561026557600080fd5b810190808035906020019092919080359060200190929190505050610876565b005b61028f610f3f565b005b600260009054906101000a900473ffffffffffffffffffffffffffffffffffffffff1673ffffffffffffffffffffffffffffffffffffffff163373ffffffffffffffffffffffffffffffffffffffff1614156104ee576102ef611144565b8781600001818152505085816020019060ff16908160ff1681525050848160400181815250508381606001818152505082816080018181525050818160e0019073ffffffffffffffffffffffffffffffffffffffff16908173ffffffffffffffffffffffffffffffffffffffff168152505060008160a0019060ff16908160ff168152505060008160c0019061ffff16908161ffff16815250506003600088815260200190815260200160002081908060018154018082558091505090600182039060005260206000209060060201600090919290919091506000820151816000015560208201518160010160006101000a81548160ff021916908360ff16021790555060408201518160020155606082015181600301556080820151816004015560a08201518160050160006101000a81548160ff021916908360ff16021790555060c08201518160050160016101000a81548161ffff021916908361ffff16021790555060e08201518160050160036101000a81548173ffffffffffffffffffffffffffffffffffffffff021916908373ffffffffffffffffffffffffffffffffffffffff1602179055505050507f6c8ed60f9fe45e31804ed5a0680945c6d61095c3ba5ebce06b372738ae7f83c8888789604051808481526020018360ff1660ff168152602001828152602001935050505060405180910390a1505b50505050505050565b6000600260009054906101000a900473ffffffffffffffffffffffffffffffffffffffff1673ffffffffffffffffffffffffffffffffffffffff163373ffffffffffffffffffffffffffffffffffffffff16141561056957600360008381526020019081526020016000208054905090505b919050565b600260009054906101000a900473ffffffffffffffffffffffffffffffffffffffff1673ffffffffffffffffffffffffffffffffffffffff163373ffffffffffffffffffffffffffffffffffffffff1614156106b0578060968161ffff16816105d357fe5b0461ffff166001541015610632576040517f08c379a00000000000000000000000000000000000000000000000000000000081526004018080602001828103825260308152602001806111aa6030913960400191505060405180910390fd5b8161ffff1660015403600181905550600260009054906101000a900473ffffffffffffffffffffffffffffffffffffffff1673ffffffffffffffffffffffffffffffffffffffff166108fc8361ffff169081150290604051600060405180830381858888f193505050501580156106ad573d6000803e3d6000fd5b50505b50565b600080600080600080600080600260009054906101000a900473ffffffffffffffffffffffffffffffffffffffff1673ffffffffffffffffffffffffffffffffffffffff163373ffffffffffffffffffffffffffffffffffffffff1614156108695761071d611144565b600360008c81526020019081526020016000208a8154811061073b57fe5b906000526020600020906006020160405180610100016040529081600082015481526020016001820160009054906101000a900460ff1660ff1660ff1681526020016002820154815260200160038201548152602001600482015481526020016005820160009054906101000a900460ff1660ff1660ff1681526020016005820160019054906101000a900461ffff1661ffff1661ffff1681526020016005820160039054906101000a900473ffffffffffffffffffffffffffffffffffffffff1673ffffffffffffffffffffffffffffffffffffffff1673ffffffffffffffffffffffffffffffffffffffff16815250509050806000015181602001518260400151836060015184608001518560a001518660c001518760e0015198509850985098509850985098509850505b9295985092959890939650565b600260009054906101000a900473ffffffffffffffffffffffffffffffffffffffff1673ffffffffffffffffffffffffffffffffffffffff163373ffffffffffffffffffffffffffffffffffffffff161415610f3b5760006001905060008090505b6003600085815260200190815260200160002080549050811015610f3857600060036000868152602001908152602001600020828154811061091657fe5b906000526020600020906006020160050160009054906101000a900460ff1660ff161415610f2b5760036000858152602001908152602001600020818154811061095c57fe5b906000526020600020906006020160040154831115610a805760049150600060036000868152602001908152602001600020828154811061099957fe5b906000526020600020906006020160010160009054906101000a900460ff1660ff161415610a2057600060049054906101000a900461ffff166003600086815260200190815260200160002082815481106109f057fe5b906000526020600020906006020160050160016101000a81548161ffff021916908361ffff160217905550610a7b565b6000600a9054906101000a900461ffff16600360008681526020019081526020016000208281548110610a4f57fe5b906000526020600020906006020160050160016101000a81548161ffff021916908361ffff1602179055505b610d01565b600360008581526020019081526020016000208181548110610a9e57fe5b906000526020600020906006020160030154831115610bc257600391506000600360008681526020019081526020016000208281548110610adb57fe5b906000526020600020906006020160010160009054906101000a900460ff1660ff161415610b6257600060029054906101000a900461ffff16600360008681526020019081526020016000208281548110610b3257fe5b906000526020600020906006020160050160016101000a81548161ffff021916908361ffff160217905550610bbd565b600060089054906101000a900461ffff16600360008681526020019081526020016000208281548110610b9157fe5b906000526020600020906006020160050160016101000a81548161ffff021916908361ffff1602179055505b610d00565b600360008581526020019081526020016000208181548110610be057fe5b906000526020600020906006020160020154831115610cff57600291506000600360008681526020019081526020016000208281548110610c1d57fe5b906000526020600020906006020160010160009054906101000a900460ff1660ff161415610ca3576000809054906101000a900461ffff16600360008681526020019081526020016000208281548110610c7357fe5b906000526020600020906006020160050160016101000a81548161ffff021916908361ffff160217905550610cfe565b600060069054906101000a900461ffff16600360008681526020019081526020016000208281548110610cd257fe5b906000526020600020906006020160050160016101000a81548161ffff021916908361ffff1602179055505b5b5b5b81600360008681526020019081526020016000208281548110610d2057fe5b906000526020600020906006020160050160006101000a81548160ff021916908360ff1602179055507fa113dd6c3891a76a317be3ffd8c4fda6c979dbf79768a0f1a9f23d528292f18f600360008681526020019081526020016000208281548110610d8857fe5b9060005260206000209060060201600001548584600360008981526020019081526020016000208581548110610dba57fe5b906000526020600020906006020160050160019054906101000a900461ffff16604051808581526020018481526020018360ff1660ff1681526020018261ffff1661ffff16815260200194505050505060405180910390a1610f2a600360008681526020019081526020016000208281548110610e3357fe5b906000526020600020906006020160405180610100016040529081600082015481526020016001820160009054906101000a900460ff1660ff1660ff1681526020016002820154815260200160038201548152602001600482015481526020016005820160009054906101000a900460ff1660ff1660ff1681526020016005820160019054906101000a900461ffff1661ffff1661ffff1681526020016005820160039054906101000a900473ffffffffffffffffffffffffffffffffffffffff1673ffffffffffffffffffffffffffffffffffffffff1673ffffffffffffffffffffffffffffffffffffffff1681525050610fa3565b5b80806001019150506108d8565b50505b5050565b600260009054906101000a900473ffffffffffffffffffffffffffffffffffffffff1673ffffffffffffffffffffffffffffffffffffffff163373ffffffffffffffffffffffffffffffffffffffff161415610fa15734600154016001819055505b565b600073ffffffffffffffffffffffffffffffffffffffff168160e0015173ffffffffffffffffffffffffffffffffffffffff1614610ff357610ff281600001518260c001518360e00151610ff6565b5b50565b8160968161ffff168161100557fe5b0461ffff166001541015611064576040517f08c379a00000000000000000000000000000000000000000000000000000000081526004018080602001828103825260308152602001806111aa6030913960400191505060405180910390fd5b600060968461ffff168161107457fe5b0490508273ffffffffffffffffffffffffffffffffffffffff166108fc8261ffff169081150290604051600060405180830381858888f193505050501580156110c1573d6000803e3d6000fd5b507fc5b18c968461f7a24156598a146d3bd9a1692f67d401a6e139d359947657d27c858285604051808481526020018361ffff1661ffff1681526020018273ffffffffffffffffffffffffffffffffffffffff1673ffffffffffffffffffffffffffffffffffffffff168152602001935050505060405180910390a15050505050565b60405180610100016040528060008152602001600060ff168152602001600081526020016000815260200160008152602001600060ff168152602001600061ffff168152602001600073ffffffffffffffffffffffffffffffffffffffff168152509056fe4e6f7420656e6f7567682066756e647320696e20636f6e747261637420746f2070617920636f6d70656e736174696f6ea265627a7a72315820c7a1bdbe254c3759559a09ee0fb04a82f40ba97ee128ed0253b3cca1c51c4a4164736f6c63430005100032",
  "source": "pragma solidity ^0.5.16;\n\ncontract FlightCompensation{\n    \n    /*\n    * Compensation amounts\n    */\n    uint16 small3 = 125;\n    uint16 small6 = 250;\n    uint16 small9 = 500;\n    uint16 large3 = 400;\n    uint16 large6 = 700;\n    uint16 large9 = 1000;\n    uint256 private availableFunds;\n\n    /*\n    * Posible statuses for the claim:\n    * 0: ongoing\n    * 1: flight landed before maxArrivalTime0\n    * 2: flight landed after maxArrivalTime0 but before maxArrivalTime1\n    * 3: flight landed after maxArrivalTime1 but before maxArrivalTime2\n    * 4: flight landed after maxArrivalTime2\n    * 5: flight cancelled by the passenger\n    * 6: flight cancelled by the airline\n    */\n    struct Claim{               //all information related to a passenger claim\n        uint256 ID;             //ID identifying the claim/passenger\n        uint8 airlineType;      //Possible airline types: 0: small airline, 1: large airline\n        uint256 maxArrivalTime0;    //Original Arrival time + 3 hours\n        uint256 maxArrivalTime1;   //Original Arrival time + 6 hours\n        uint256 maxArrivalTime2;   //Original Arrival time + 9 hours\n        uint8 status;           //status of the flight\n        uint16 compensation;    //amount owed to the passenger: $0-$1000\n        address payable compensationAddress;    //address to which we will send the compensation\n    }\n\n    event ClaimCreation(    //event sent when a new claim is added to the smart contract\n        uint256 ID,        //ID identifying the claim/passenger\n        uint8 airlineType, //Possible airline types: 0: small airline, 1: large airline\n        bytes32 flightID  // <carrier_code><flight_number>.<timestamp_in_sec_of_departure_date>\n    );\n\n    event ClaimResolve(     //event sent when the claim is resolved\n        uint256 ID,        //ID identifying the claim/passenger\n        bytes32 flightID,   // <carrier_code><flight_number>.<timestamp_in_sec_of_departure_date>\n        uint8 status,           //status of the flight\n        uint16 compensation    //amount owed to the passenger: $0-$1000\n    );\n\n    event CompensationPaid(     //event sent when the claim's determined compensation has been payed to passenger\n        uint256 ID,             //ID identifying the claim/passenger\n        uint16 compensation,    //confirmed amount sent to the passenger's account\n        address recipient       //passenger's address\n    );\n\n    event CompensationError(    //event sent when there is an error in sending the compensation to the passenger\n        uint256 ID,             //ID identifying the claim/passenger\n        uint16 compensation,    //confirmed amount sent to the passenger's account\n        address recipient,      //passenger's address\n        bytes32 errorMessage    //error message\n    );\n\n    address payable creator;        // address of the creator of the contract\n\n    // All the insurances handled by this smart contract are contained in this mapping\n    // key: a string containing the flight number and the timestamp separated by a dot\n    // value: an array of insurance contracts for this flight\n    mapping (bytes32 => Claim[]) claimList;\n\n    /**\n    * @dev This modifier checks that only the creator of the contract can call this smart contract\n    */\n    modifier onlyIfCreator {\n        if (msg.sender == creator) _;\n    }\n\n    modifier enoughFunds(uint16 compensation) {\n        require(availableFunds >= compensation/150, \"Not enough funds in contract to pay compensation\");\n        _;\n    }\n    /**\n    * @dev Constructor\n    */\n    constructor () public {\n        creator = msg.sender;\n    }\n\n    function addNewClaim(\n        uint256 ID,\n        bytes32 flightID,\n        uint8 airlineType,\n        uint256 maxArrivalTime0,\n        uint256 maxArrivalTime1,\n        uint256 maxArrivalTime2,\n        address payable compensationAddress\n    )\n    external onlyIfCreator {\n\n        Claim memory claimToAdd;\n        claimToAdd.ID = ID;\n        claimToAdd.airlineType = airlineType;\n        claimToAdd.maxArrivalTime0 = maxArrivalTime0;\n        claimToAdd.maxArrivalTime1 = maxArrivalTime1;\n        claimToAdd.maxArrivalTime2 = maxArrivalTime2;\n        claimToAdd.compensationAddress = compensationAddress;\n        claimToAdd.status = 0; //when we create a claim, it is ongoing -> code:0\n        claimToAdd.compensation = 0; //when we create a claim, initial compensation is 0\n\n        claimList[flightID].push(claimToAdd);\n\n        emit ClaimCreation(ID, airlineType, flightID);\n    }\n    /*\n    * @dev Update the status of a flight\n    * @param flightId <carrier_code><flight_number>.<timestamp_in_sec_of_departure_date>\n    * @param actualArrivalTime The actual arrival time of the flight (timestamp in sec)\n    */\n    function updateFlightStatus(\n        bytes32 flightID,\n        uint256 actualArrivalTime\n    )\n    external onlyIfCreator {\n        //default is that the flight landed on time, we hope!\n        uint8 updatedStatus = 1;\n\n        //for all claims in a flight, do this...\n        for (uint i = 0; i < claimList[flightID].length; i++) {\n            //going through only the ongoing claims\n            if (claimList[flightID][i].status == 0) {\n                if (actualArrivalTime > claimList[flightID][i].maxArrivalTime2){\n                    updatedStatus = 4;\n                    if (claimList[flightID][i].airlineType == 0){\n                        claimList[flightID][i].compensation = small9;\n                    }\n                    else {\n                        claimList[flightID][i].compensation = large9;\n                    }\n                }\n                else if (actualArrivalTime > claimList[flightID][i].maxArrivalTime1){\n                    updatedStatus = 3;\n\n                    if (claimList[flightID][i].airlineType == 0){\n                        claimList[flightID][i].compensation = small6;\n                    }\n                    else {\n                        claimList[flightID][i].compensation = large6;\n                    }\n                }\n                else if (actualArrivalTime > claimList[flightID][i].maxArrivalTime0){\n                    updatedStatus = 2;\n\n                    if (claimList[flightID][i].airlineType == 0){\n                        claimList[flightID][i].compensation = small3;\n                    }\n                    else {\n                        claimList[flightID][i].compensation = large3;\n                    }\n                }\n                // update the status of the claim\n                claimList[flightID][i].status = updatedStatus;\n                emit ClaimResolve(\n                    claimList[flightID][i].ID,\n                    flightID,\n                    updatedStatus,\n                    claimList[flightID][i].compensation\n                );\n\n                compensateIfEnoughFunds(claimList[flightID][i]);\n            }\n        }\n    }\n\n    function getClaimsCount(bytes32 flightID) public view onlyIfCreator returns (uint) {\n        return claimList[flightID].length;\n    }\n\n    function getClaim(bytes32 flightID, uint i) public view onlyIfCreator returns (\n                        uint256, uint8, uint256, uint256, uint256, uint8, uint16, address payable) {\n        Claim memory claim = claimList[flightID][i];\n        return (claim.ID, claim.airlineType, claim.maxArrivalTime0, claim.maxArrivalTime1,\n                    claim.maxArrivalTime2, claim.status, claim.compensation, claim.compensationAddress);\n    }\n\n    function deposit() external payable onlyIfCreator {\n        availableFunds = availableFunds + msg.value;\n    }\n    function withdraw(uint16 amount) external onlyIfCreator enoughFunds(amount){\n        availableFunds = availableFunds - amount;\n        creator.transfer(amount);\n    }\n    function compensate(\n        uint256 ID,\n        uint16 compensation,\n        address payable recipient\n    )\n    internal enoughFunds(compensation){\n        uint16 ETHcompensation = compensation/150;\n        //if(recipient.send(compensation)) {\n            recipient.transfer(ETHcompensation);\n            emit CompensationPaid(ID, ETHcompensation, recipient);\n        //}\n        //else {\n        //    bytes32 errorMessage = \"airline is bankrupt no money\";\n        //    emit CompensationError(ID, ETHcompensation, recipient, errorMessage);\n        //}\n    }\n    function compensateIfEnoughFunds(Claim memory claimToPay) private {\n        if (claimToPay.compensationAddress != address(0)) {\n            compensate(claimToPay.ID, claimToPay.compensation, claimToPay.compensationAddress);\n        }\n    }\n\n}",
  "sourcePath": "/Users/afuadhossain/Documents/GitHub/IFT6056-Project/contracts/FlightCompensation.sol",
  "compiler": {
    "name": "solc",
    "version": "0.5.16+commit.9c3226ce.Emscripten.clang"
  },
  "schemaVersion": "3.0.23",
  "updatedAt": "2020-03-21T03:05:16.137Z",
  "devdoc": {
    "methods": {
      "constructor": {
        "details": "Constructor"
      }
    }
  },
  "userdoc": {
    "methods": {}
  }
}